S1231000C00ECC02C906800ECB06190C850A1E0CC806800EC802D102200F8F0A9D0A800E2E
S1231020C802C907C904800ECB02CF02CB06800ECB02D202200F850A9D0A800ECC02CA0688
S1231040800ECB02200FB20A800ECA03C806210CA70A800EC802260CCA04800ECB02D002BA
S1231060CB06A00A800ECD02C806210CB50A800EC802260C800ECE02C806210CBD0A800EA2
S1231080C802260C800ECB06800ECC02C906850A000000000000000053080D000A000100C4
S12310A0FF0FF30FC00F00000000000000000000000000000000000000000000000000004D
S12310C000000000000000000000000000000000000000000000000000000000000000000C
S12310E00000000000000000000000000000000000000000000000000000000000000000EC
S12311000000000000000000000000000000000000000000000000000000000000000000CB
S1091120000000000000C5
S9031000EC
