S1230100C00EE002BA0D800EEE02A508800EE002BB08800EEF02A508B90D8C0ABC0DE206CD
S1230120E202BB08800EE702AD08E104E102EA00280FB5088C0A800EF002A508800EE1020E
S1230140BB08800EEF02A508020F0000E306E303280FA50BAD08E304A70A0000E406210C81
S1230160AF0AE402260C800EAD0B0000E802AD08E902AD08B50B0000E506E502ED00080E90
S1230180080E080E080E080E080E080E080E080EE602AD08E502EC00080E080E080E080EE3
S12301A0080E080EE602AD08E502EB00080E080E080EE602AD08E502EA00E602AD08BB0B8D
S12301C0010000000000000000000000300020000D000A0007003800C001000EF100FD00B7
S12301E000015200650061006400200062006C006F0063006B00200000000D000A0000001C
S111020044006F006E0065002E002000000018
S9030100FB
