S10500100000EA
S10B00200000000000001800BC
S1230100800E400E8402850A00029B08800E400E8A028B0A00049B08800E400E9002910A98
S123012000069B08800E400E9602970A1800C908020F3000070000009E099B0B000100007E
S1230140210CA00A260C9F0B0000210CA50A260CA40B0000C806C00EC802420E080E080E49
S1230160080E9A0099029F00C00EC802020E9A0099029F00C00EC802400E080E080E080EED
S12301809A0099029F00C00EC80299029F00A90B00000000C00E1202A900C00E1202080686
S12301A0EE00C00E0802A900EE00C00E0802A900EE00C00E0802A900EE00C00E0802A9007F
S12301C0EE00C00E0802A900EE00C00E0802A900EE00C00E0802A900F400C90B0000C00E38
S11F01E0F302A400EE0B20000000C00EFC02A400C00EFD02A400F40B0A00000063
S11D0200000012061102010E8C00130211061002110712021006800B070008
S9030010EC
