S10F002000000000000007004000100079
S1230100C00E86038708B008020F800AF00F00001206100211071102010E130014021106FF
S109012012021006870B19
S12301600000C00EC702C806150208061502CC08C00ECA02ED08C00E0803C606CC08C00E30
S1230180C804B80AC00EC902ED08B00B0000F80F00000D00200030000000C00ECB02ED0890
S12301A0C00EC602020E080E080E080E1300CB02ED08C00EC602020E1300CB02ED08C00E35
S12301C0C602080E080E080E1300CB02ED08C00EC6021300CB02ED08CC0B0000210CEE0AD5
S10701E0260CED0BED
S9030100FB
