S12300200000000000000000000000000000000000000000000000000000000000000000BC
S1230040000000000000000000000000000000000000000000000000000401040204720417
S123006064048E049A047F056805FF0FF60F940830085B08E40FFA0FF90FF80F030030006B
S123008001000200090020000D000A000000480B4C0100004B0B800100004E0BC001000088
S12300A0510BCA010000540B00010000570B000200005A0B400200005D0BC0020000600B15
S10B00C080020000630B000341
S1230100C00E10061106120613061406150616061706180619061A06240625062606270636
S1230120280629062A062B06990A3F003F003F00F40F800E2C021A06800E1A031006800E6F
S12301402D021A06800E1A031106800E11023502400FB70A800E950219064F08800E9602E1
S123016019064F08800E970219064F08020F800E110298023502480FCA0A800E9502190676
S12301804F08800E960219064F08800E970219064F08020F800E100213064908800E4302DD
S12301A019064F08800E110235021206800E2E0212021A06800E1A031A064C08520855080D
S12301C0800E430219064F08800E23021A064C08800E430219064F08800E20021806460846
S10B01E058086108020F800AAF
S12302000000800E100239021C06800E1C023A02480F8C0A1C06850A800E1C021D06800EFA
S12302202F021D021A06800E1A031E06800E1E021D06800E30021D021A06800E1A031F06DB
S1230240800E2D021A06800E1A031106800E110235021206800E12021F021A06800E1A027E
S12302602406800E1A031B06800E10023E00200FC40A800E40022106800E120232021A06BC
S1230280800E1A032006CB0A800E120231021A06800E1A032006520B0000800E18021606CD
S12302A0800E1506800E16023602400FD80ADB0A16061504D20A800E1502200FE40A800E3C
S12102C0170219064F08E90A800E15023F0219064F08800E16023F0219064F08460B90
S12303000000800E13023802400F9D0A870A800E3F02400219064F08800E3F0242021906BC
S12303204F08800E130237021406800E3F021706800E140218064608B10A800E3F024102A3
S123034019064F08800E3F0219064F08800E130238021406800E3F021706800E1402180639
S10703604608490BF3
S12303800000800E1A03200FC60A4C0B19064F081A04C10A0000810DCB0A800E1902860D5A
S10703A0800E4F0B6D
S11B04000000800E1B022206800E330222021A06800E1A032306550BD2
S11F04800000800E440219064F08800E450219064F08800E34021A064C08580B2C
S11705000000800E430219064F08800E430219064F085E0BE8
S12305800000800E2506800E3D0226062604C90AEE0A800E2502200FCE0AD20A800E430245
S12305A019064F08800E2902200FD70ADD0A5E08800E290235022906EC0A800E2802200FAF
S12305C0E30A5E08EC0A800E2702180646082704800E2802350228062504C60A800E2906AD
S11505E0800E440219064F08800E450219064F085B0B0A
S12306000000800E43021706800E40022706800E20022806800E1B022906800E3B022A0636
S11F0620800E2802200F990A800E2902200F990A9D0A5B082A04900A9D0A610BC0
S1230800AD0701000E0416041F0425042B042F043404390440044A0452045B044A006100DE
S12308206E00750061007200790000004600650062007200750061007200790000004D00F8
S12308406100720063006800000041007000720069006C0000004D006100790000004A008D
S123086075006E00650000004A0075006C007900000041007500670075007300740000000F
S1230880530065007000740065006D0062006500720000004F00630074006F006200650051
S12308A0720000004E006F00760065006D00620065007200000044006500630065006D00A6
S12308C06200650072000000C004CC04D804E404F004FC040805140520052C05380544058D
S12308E050055C05000001000200030004000500000006000700080004000900010002000A
S123090007000A000500000001000B000800040005000C000200070008000D001F001C003B
S12309201F001E001F001E001F001F001E001F001E001F001F001D001F001E001F001E00CB
S10F09401F001F001E001F001E001F00EF
S1230980020005000500010003000600010004000000020005000000030006000600020020
S12309A0040000000200050001000300060001000400000000000300050001000300060007
S12309C00200040000000200050001000200050000000300050001000400060002000400E5
S12309E00000030003000600010004000600020005000000030005000100040004000000C4
S1230A0002000500000003000600010004000600030006000000030005000100030006009C
S1230A20020004000000020005000100010004000600020004000000030005000100030087
S1230A4006000200020005000000030005000100040006000200040001000400050001005F
S1230A6003000600010004000000020005000000060002000300060001000400060002003F
S1230A80050000000300050004000000010004000600020004000000030005000100030024
S1230AA0020005000600020004000000020005000100030006000100000003000400000006
S1230AC0020005000000030006000100040006005300750020004D006F002000540075006A
S1230AE02000570065002000540068002000460072002000530061000D000A0000008605EC
S1230B008D0594059C05A605AF05B605530075006E0064006100790000004D006F006E004D
S1230B206400610079000000540075006500730064006100790000005700650064006E0006
S1230B406500730064006100790000005400680075007200730064006100790000004600E1
S1210B607200690064006100790000005300610074007500720064006100790000000D
S9030100FB
