S1090000020B020F800058
S1230100C00E8E038F068F02A80895089208920890068F02BA0891068F02020FF00F0000B4
S1230120000000000000480E920B0000A406A306C00EA402A602480FA00AA406A304980A65
S1230140C00EA302950B000000000000FD0FFB0F0000A506A306C00EA502A702480FB30AEC
S1230160A506A304AB0AC00EA302A80B0000A8089208B60B0000C002400FBB0AC102BA0BE5
S1070180C40F3C0068
S12302000000C00E8C039308A208C00E8D039308A708800B6D0B92049000910000000700CF
S12302200A0030003A0000008E068E02480E480E480E8F009102AC08C00E8E028F009102CA
S1230240AC08930B0000C00E9202AC08A20B0000C00E9002AC08A70B0000810DAD0A860DE7
S1050260AC0BE1
S9030000FC
