S1090000020B020FD00008
S1230100C00E8F0390069002AA0897089408940891069002BC0892069309010F8E0AF00F02
S123012000000000000000010000480E940B0000A606A506C00EA602A802480FA20AA6069F
S1230140A5049A0AC00EA502970B000000000000FD0FFB0F0000A706A506C00EA702A902A7
S1230160480FB50AA706A504AD0AC00EA502AA0B0000AA089408B80B0000C202400FBD0A43
S10B0180C302BC0BC40F3C00D8
S105019038042D
S10D01A0C00EC8026A0D010F800AA8
S12302000000A708C00E8C039308A208C00E8D039308800B6D0B92049100920000000700CD
S12302200D0030003A0000008E068E02480E480E480E8F009102AC08C00E8E028F009102C7
S1230240AC08930B0000C00E9202AC08A20B0000C00E9002AC08A70B0000810DAD0A860DE7
S1050260AC0BE1
S9030100FB
