S10D14000000000000000000FF0FD0
S1231800C00E860287068A08A408BF0A030100000000000A0000C00E89020806870298083C
S123182008078702A1080807C00E08078A0B3F000000080E080E080E080E080E080E970088
S1231840980B00009700A10B0000C00E890208060803280FB10AB302B206B203B408C00E8E
S1151860A80AA40B0000500C0000210CB50A260CB40BD8
S113187E000CC00ED102B408690DC30AB408020FDD
S12318A020004100420043004400450046004700480049004A004B004C004D004E004F00CC
S11918C050005100520053005400550056005700580059005A0067
S9031800E4
