S10D14000000000000000000FF0FD0
S1231800C00E89026A0DC00E8A028B068E08A808BF0A100F030100000000000A0000C00EFF
S12318208D0208068B029C0808078B02A5080807C00E08078E0B3F000000080E080E080E87
S1231840080E080E080E9B009C0B00009B00A50B0000C00E8D0208060803280FB50AB70290
S11D1860B606B603B808C00EAC0AA80B0000500C0000210CB90A260CB80BBD
S113187E000CC00ED102B808690DC30AB808020FD5
S12318A020004100420043004400450046004700480049004A004B004C004D004E004F00CC
S11918C050005100520053005400550056005700580059005A0067
S9031800E4
