S12300000000000000000000000000000000000000000000000000000000000000000000DC
S12300200000000000000000000000000000000000000C0A100A190A00001E0B000200003E
S1230040210B80020000240B00030000270B800300002A0B000400002D0B80040000300BD7
S123006000050000330B80050000360B00060000390B800600003C0B000700003F0B800784
S12300800000420B00080000450B80080000480B000900004B0B000A00004E0B8009000091
S12300A0510BC009380E390EE9075F019000000EC00138000700000EC00FF80F30000D007B
S12300C00A0004002E002B002D000100FF0FFE0FFC0FBF0FBE0FBB0FB70FB20FB10FAE0FF8
S11900E0AC0FAA0FA70FA60F9F0F860FE00FF30FF60FFC0FC00F14
S11D0300C00E0006010628081C081F08800E0102200F8B0A840A020F8B0A00
S1130400190C800A1E0C0706800E07024C081C0BF0
S1230500800E07027402400F8E0A800E07027502480F8E0A800E070276020706800E070233
S12305206902200F940ACA0A800E07026A02200F9A0ACA0A800E07026C02200FA00ACA0A4F
S1230540800E07026D02200FA60ACA0A800E07027102200FAC0ACA0A800E07026B02200FE8
S1230560B20ACA0A800E07027002200FB80ACA0A800E07026E02200FBE0ACA0A800E0702B0
S12305806F02200FC40ACA0A800E07027202200FCC0ACA0A22081F0B800E64024C08250868
S11505A0800E07027902200F1F0B800E650201061F0BB4
S1230600800E02026802400F220B800E63024C08800E02025E024C08800E07027A020806B0
S11D0620800E08025E024C08800E080203070304800E020265020206220B99
S11B0700800E62024C08800E0202200F890A2808250B2B082808250B50
S1230800800E19020506800E0206800E68020606800E050705040604880A800E1902030695
S1050820280B9F
S12109002E08800E0002200F8C0A400837083A08800E650200062B0B37083D082B0B96
S1230A00800E02020B06800E19020406800E0D0631080906800E09025E024C0831080A06FD
S1230A20800E0A025E024C0834080C06800E65020E06800E0B02200FA70A31080906310811
S1130A400A0634080D06800E0E0265020E062E0BF1
S1230B00800E0B02200F880A800E0806800E310B800E040308060404800E0B0266020B0650
S1090B20800E0802310BF7
S1170C00C00E0902040E040E040E040E040E040E0A02340B4C
S1230D00800E0C020F0643084608800E0E026702400F8B0A370B800E0D020F06430846080D
S1050D20370B8B
S1230E00800E52020F0643084608800E54020F0643084608800E55020F06430846083A0BD4
S1190F00800E53020F0643084608800E56020F06430846083D0B6A
S1231000800E0C020F064308800E0D020F0643084608800E0C021306800E0D021406800E8B
S12310201A021506800E1503200F980A4908020F16061504800E150317061504800E1602E5
S11F1040200E010E1302200F920A800E1702200E010E1402200F920A800E400BD5
S1231100800E0F0257001006800E1106800E10025B02400F8E0A10061104860A800E1102DA
S12311205E024C08800E0F0258001006800E1106800E10025C02400FA00A10061104980A81
S1231140800E11025E024C08800E0F0259001006800E1106800E10025D02400FB20A100663
S11B11601104AA0A800E11025E024C08800E0F025A005E024C08430B5A
S1111200800E5F024C08800E60024C08460B04
S11113001206210C810A800E1202260C4C0BE0
S11513801206310CC10A800E6202360C800E12024F0B07
S1231400800E1B021806800E1803200F880A8B0A4C081804830A490B0000000000000000AF
S12314204E0285058504C500C1058504C9020305000042004100440020004300410054009F
S1131440450047004F00520059000D000A000000FB
S9030300F9
