S10D001000000000000000000000E2
S1230020FA0FFD0F0700E90FE60FD80FE80FE70FD60FFF0F01003000000000003F000D006F
S12300400A00C301C901CF0180018F019801A001A901E0010000000000000000000000005E
S11100600001150156015E0165014A016D01A2
S1230100C00E040F12001D06C00E1D02C10DD00DC00E210219020806C00E10022E06F40803
S123012008072E048F0AC00E210219020806C00E220219020906800E09020C06800E1C0650
S1230140C00E11022E06C00E08033009800E0C0209062E04A30AC00E230219020A06800E3E
S12301600A020C06C00E11022E06C00E08033009800E0C020A062E04B50AC00E240219028A
S12301800B0632093409C00E250219020B063209800E1D021B0236093409800E1C02200F55
S12301A0EE0AC00E260219020B063209C00E220219020B06C00E10022F0633093409C00E6C
S12301C0270219020B063209C00E230219020B06C00E10022F0633093409020FC00E2802D5
S11501E00B0632093409020F0000C80DF50AC20DF40BCD
S123020000002A06800E2A023109A40835092B06800E2B020C07800E2A021E00A40835090B
S12302202B06800E2B020C07800B0000400E080E400E080E400E080E400E080E400E080E3C
S1230240400E080E1E00950B00002C06800E2C02200FAD0A800E2C02A40B800E2C02160265
S1230260200FC30A400FC30A800E2C021702200FC30A800E2C021402400FC60A800E2C02E4
S12302801502480FC60A800E2C02A40B1C04800E2C02A40B00002C06800E29022D06800E7A
S12302A02C022D022D06800E2D03CA0B0000800E0B03200FDC0AD60B3609D70A0000800ED7
S12302C00B0336092F04DF0ADE0B0000800E1F023609800E20023609E50B00002B06210C9D
S10D02E0EF0A800E2B02260CED0B32
S12303004D00410047005400410050004500200048004500410044004500520000005500BC
S12303204E0049005400200020003A00200000004C004100420045004C003A00200000007A
S123034046004F0052004D00410054003A00200000004E004F002000530049005800420083
S123036049005400200048004500410044004500520020004400450054004500430054003A
S12303804500440000000000000000000000000000000000000000000000000000000000D0
S10D03A0000000000000000000004F
S12303C020004100420043004400450046004700480049004A004B004C004D004E004F00C1
S12303E050005100520053005400550056005700580059005A002E002E002E000D000A00B1
S1230400300031003200330034003500360037003800390020002E002000200020002000FD
S12304202000200020002000200020002000200020002000200020002000200020002000B8
S10704402000200074
S9030100FB
