S10D001000000000000000000000E2
S1230020FA0FFD0F0700E90FE60FD80FD60F01003000000000003F000D000A00C301C901D2
S1230040CF0180018F019801A001A901C001000000000000000000000000000142014A0187
S1090060510136015901B3
S1230100C00E040F12001A06C00E1A02C10DD00DC00E1E020806C00E10022B06E50808072A
S12301202B048E0AC00E1E020806C00E1F020906800E09020C06800E1906C00E11022B0690
S1230140C00E08032D092B04A00AC00E20020A06800E0A020C06C00E11022B06C00E08031C
S12301602D092B04AE0AC00E21020B062E093009C00E22020B062E09800E1A0218022806C0
S123018032093009800E1902200FDF0AC00E23020B062E09C00E1F020B06C00E10022C06D9
S12301A02F093009C00E24020B062E09C00E20020B06C00E10022C062F093009020FC00E2B
S11701C025020B062E093009020F0000C80DE60AC20DE50BEA
S123020000002706800E080E080E080E080E080E080E1B009A0831092806800E28020C07AB
S1230220C00E27021B009A0831092806800E28020C07800B00002906800E2902280FAF0A70
S1230240800E29021302400FAF0A800E29021402400FB20A800E29021602480FB20A800E78
S123026029029A0B1904800E29029A0B00002906800E26022A06800E29022A022A06800E77
S12302802A03B60B0000800E0B03200FC80AC20B3209C30A0000800E0B0332092C04CB0A1E
S12302A0CA0B0000800E1C023209800E1D023209D10B00002806210CDB0A800E2802260C90
S10502C0D90B54
S12303004D00410047005400410050004500200048004500410044004500520000005500BC
S12303204E0049005400200020003A00200000004C004100420045004C003A00200000007A
S123034046004F0052004D00410054003A00200000004E004F002000530049005800420083
S123036049005400200048004500410044004500520020004400450054004500430054003A
S123038020004100420043004400450046004700480049004A004B004C004D004E004F0001
S12303A050005100520053005400550056005700580059005A002E002E002E000D000A00F1
S12303C0300031003200330034003500360037003800390020002E0020002000200020003E
S12303E02000200020002000200020002000200020002000200020002000200020002000F9
S107040020002000B4
S9030100FB
