S10D001000000000000000000000E2
S12300201404CF0019045300C9004002010001000700300020000D000A009C00AD00C200DF
S10B0040BD000001E000EA002C
S1230100C00E1602C10DD00DC00E040F280F8A0A08068D0AC00E17020806C00E0802BA0D65
S12301201D09200F9A0AC00E0802BA0D1F091E0908048D0AD00D020F0000C00E0C06B90D9D
S1230140A40ABC0D0C049F0A800E0C02200FAB0AC00E010E9C0BC00E9C0B0000B90DBA0A68
S1230160BC0D090621092009B90DB70AB00A2209C00EAD0BC00E010EAD0B0000C00E0902F0
S1230180C40DBD0B0000800E100209062009800E110209062009800E120209062009800EA9
S11B01A0130209062009800E140209062009800E150209062009C20B70
S12301C00000800E1B020B062309800E1C020B062309E00B0000210CEB0A800E0B02260C70
S10501E0EA0B24
S12302000000800E09020A06C00E0A02480E080E080E480E080E080E480E080E080E1800B9
S123022019020B062309C00E0A02480E080E080E480E080E080E180019020B062309C00E46
S12302400A02480E080E080E180019020B062309C00E0A02180019020B062309800E1A02A8
S10902600B062309800BCC
S9030100FB
