S10F0010000000000000000000000000E0
S1230020FA0FFD0FFE0FFF0FE80FE70FE60FD80F07007F0000000000000000003F000D00F1
S12300400A0020005B005D003000C001C601CC0124032A03300336033D03450300030A03DD
S1230060190340018003E001500165015C0064006B000E0115011C0123015000A001800200
S115008049019802A302B402000000000000000000002B
S12300A000004606800E33024706800E460247024706800E4703500B0000800E0B03200F76
S12300C0620A5C0B3E095D0A0000800E0B033E094804650A640B0000800E1F023E09800E0A
S10900E020023E096B0B37
S1230100C00E070218001C06C00E1C02C10D800E1A061B06C00E250213020806C00E100249
S12301201D063209C00E250213020806C00E260213020906800E09020C06C00E11021D067C
S1230140C00E08033409800E0C0209061D04A00AC00E270213020A06800E0A020C06C00E79
S123016011021D06C00E08033409800E0C020A061D04B20A800E1B06C00E270213020B06DA
S1230180C00E280213020D063F09200FCB0A800E010E1B06DA0AC00E270213020B06C00E62
S12301A0290213020D063F09200FDA0A800E010E010E1B06800E1A02200F400BC00E2D029F
S12301C013020B063609800E1C0224023E09800E21023E09C00E260213020B06C00E1002A9
S12301E048063709800E21023E09800E22023E09800E1B02200FFE0A3B093C0B800E1B0264
S12302001302200F850A39093C0B800E1B021202200F8C0A3A093C0B3B093C0B0000C00E17
S12302202A0213020B0636098E0B0000C00E2B0213020B063609950B0000C00E2C0213027F
S12302400B0636099C0B800E23023E093809C00E2E0213020B0636093809800E1B02200FEA
S1230260B20AC20A800E1B021302200FBA0A41093809D00A800E1B021202200FC20A4209D5
S12302800000C80DC10AC20DC00B0B0636093809D00AC00E300213020B0636093809D00A35
S12302A000004406800E4402350943093D094506800E45020C07800E44021E0043093D0995
S12302C04506800E45020C07D00B0000400E080E400E080E400E080E400E080E400E080E18
S10B02E0400E080E1E00E50BA0
S113034000004506810DA20A800E4502860DA00B11
S1230380000000000000000000000000000000000000000000000000000000000000000059
S10703A00000000055
S12303C020004100420043004400450046004700480049004A004B004C004D004E004F00C1
S12303E050005100520053005400550056005700580059005A002E002E002E000D000A00B1
S1230400300031003200330034003500360037003800390020002E002000200020002000FD
S11904202000200020002000200020002000200020002000200062
S12305000000C00E10024806800E0B034506800E0D034406800E4502200E010E4402200F53
S1230520950A4804840A800E800B800E010E800B0000C80DA20AC20D19004506800E450274
S12305403E09990A980B0000C80DB30AC20D4406800E440235093D093E09800E44021E00CE
S12305603D093E09A40AA30B00004606800E4602200FBD0A800E4602B40B800E46021402F5
S1230580200FD30A400FD30A800E46021502200FD30A800E46021602400FD60A800E460233
S11705A01702480FD60A800E4602B40B1A04800E4602B40BAB
S12306005000410059004C004F00410044003A002000000046004F0052004D0041005400A9
S1230620200055004E004B004E004F0057004E0000004200410044002000480045004100B1
S123064044004500520000004100530043004900490020005300490058004200490054005F
S1230660410053004300490049000000530049005800420049005400000055004E004B004C
S11506804E004F0057004E0000004D004100470000004D
S11707000000C80D880AC20D08071D04810A800B1A04800BBC
S9030100FB
