S10F0010000000000000000000000000E0
S1230020FA0FFD0FFE0FFF0FF80FE80FE70FE60FD80F000EC00FF80F0700000EC0013800CA
S123004007007F0000000000000000003F000D000A0020005B005D003000C001C601CC0163
S123006024032A03300336033C0343034A03520300030A031903C0038003E001D003E50387
S123008080014C0254025B0226012D0134013B01420140026302800270019802A302C30233
S11500A0D4020000000000000000000000000000000074
S1230100C00E07021C002406C00E2402C10D800E22062306C00E2D0213020806C00E10021D
S123012025063C09C00E2D0213020806C00E2E0213020906800E09020C06C00E1102250652
S1230140C00E08033E09800E0C0209062504A00AC00E2F0213020A06800E0A020C06C00E5F
S123016011022506C00E08033E09800E0C020A062504B20A800E2306C00E2F0213020B06B0
S1230180C00E300213020D064B09200FCB0A800E010E2306EB0AC00E2F0213020B06C00E2D
S12301A0310213020D064B09200FDC0A800E010E010E010E2306EB0AC00E2F0213020B0679
S12301C0C00E320213020D064B09200FEB0A800E010E010E2306800E2202200F4C0BC00E9E
S12301E0370213020B064109800E24022C024A09800E29024A09C00E2E0213020B06C00E1F
S1230200100255064209800E29024A09800E2A024A09800E2302200F8F0A4709480B800E5D
S123022023021302200F960A4409480B800E23021102200F9D0A4509480B800E230212020D
S1230240200FA40A4609480B4709480B0000C00E330213020B064109A60B0000C00E340250
S123026013020B064109AD0B0000C00E350213020B064109B40B0000C00E360213020B06F2
S12302804109BB0B800E2B024A094309C00E380213020B0641094309800E2302200FD10A6F
S12302A0E90A800E23021302200FD90A4D094309F70A800E23021102200FE10A4E09430947
S12302C0F70A800E23021202200FE90A4F094309F70AC00E390213020B0641094309F70AC5
S11302E0C00E3A0213020B0641094309F70A020F32
S12303000000800E51021D005706800E5806800E57021902400F8F0A57065804870A800ED0
S123032058022C024A09800E51021E005706800E5806800E57021A02400FA10A57065804E0
S1230340990A800E58022C024A09800E51021F005706800E5806800E57021B02400FB30A34
S11D036057065804AB0A800E58022C024A09800E510220002C024A09800B9B
S1230380000000000000000000000000000000000000000000000000000000000000000059
S10703A00000000055
S12303C020004100420043004400450046004700480049004A004B004C004D004E004F00C1
S12303E050005100520053005400550056005700580059005A002E002E002E000D000A00B1
S1230400300031003200330034003500360037003800390020002E002000200020002000FD
S11904202000200020002000200020002000200020002000200062
S123048000005306800E3D025406800E530254025406800E5403C00B0000800E0B03200FCA
S12304A0D20ACC0B4A09CD0A0000800E0B034A095504D50AD40B0000800E27024A09800EBD
S11904C028024A09DB0B00005206810DE50A800E5202860DE30B87
S12305000000C00E10025506800E0B035206800E0D035106800E5202200E010E5102200F12
S1230520950A5504840A800E800B800E010E800B0000C80DA20AC20D21005206800E520245
S12305404A09990A980B0000800E5606C80DBD0AC20D5106800E5602200FAF0AB20A800E3A
S123056029024A0940095604800E56021402200FA60A4309800E5606A60A800E5602200F80
S1230580C20A4309A30B0000C80DD30AC20D5106800E51023F0949094A09800E51022600E4
S12305A049094A09C40AC30B00005306800E5302200FDD0A800E5302D40B800E53021502E8
S12305C0200FF30A400FF30A800E53021602200FF30A800E53021702400FF60A800E53024A
S11705E01802480FF60A800E5302D40B2204800E5302D40BE8
S12306005000410059004C004F00410044003A002000000046004F0052004D0041005400A9
S1230620200055004E004B004E004F0057004E0000004200410044002000480045004100B1
S12306404400450052000000410053004300490049002000420049004E004100520059006D
S1230660530049005800420049005400410053004300490049000000420049004E00410020
S1230680520059000000530049005800420049005400000055004E004B004E004F005700F6
S10F06A04E0000004D0041004700000027
S11707000000C80D880AC20D08072504810A800B2204800BAC
S10D07800000C80DC10AC20DC00B31
S12307A000005106800E51023F09500949095206800E52020C07800E51022600500949090B
S12307C05206800E52020C07D00B0000400E080E400E080E400E080E400E080E400E080EF9
S10B07E0400E080E2600E50B93
S9030100FB
