S10F0010000000000000000000000000E0
S1230020FA0FFD0FFE0FFF0FE80FE70FE60FD80F07007F0000000000000000003F000D00F1
S12300400A003000C001C601CC014C03520328033203410340018003E0010F0317031F03D2
S1230060000350016501800188018F017401A00180022B019802A302B4020000000000006F
S10700800000000078
S1230100C00E070218001C06C00E1C02C10D800E1A061B06C00E220213020806C00E10024C
S12301201D062B09C00E220213020806C00E230213020906800E09020C06C00E11021D0689
S1230140C00E08033109800E0C0209061D04A00AC00E240213020A06800E0A020C06C00E7F
S123016011021D06C00E08033109800E0C020A061D04B20A800E1B06C00E240213020B06E0
S1230180C00E250213020D063809200FCB0A800E010E1B06DA0AC00E240213020B06C00E6F
S12301A0260213020D063809200FDA0A800E010E010E1B06800E1A02200F390BC00E3002AD
S12301C013020B0633093509C00E2D0213020B063309800E1C02210237093509C00E2E02D1
S12301E013020B063309C00E230213020B06C00E1002410634093509C00E2F0213020B06B9
S12302003309C00E240213020B06C00E1002410634093509C00E270213020B06330935094B
S1230220800E1B02200FA40A800E1B021302200F9C0A3A093509B10A800E1B021202200F73
S1230240A40A3B093509B10AC00E280213020B0633093509B10AC00E290213020B06330901
S10702603509020F47
S10D02800000C80DC10AC20DC00B36
S12302A000003D06800E3D0232093C0936093E06800E3E020C07800E3D021E003C093609D7
S12302C03E06800E3E020C07D00B0000400E080E400E080E400E080E400E080E400E080E26
S12302E0400E080E1E00E50B00003F06800E2C024006800E3F0240024006800E4003F40B1A
S12303000000800E0B03200F860A800B3709810A0000800E0B0337094104890A880B0000E1
S1110320800E1F023709800E200237098F0B52
S113034000003E06810DA20A800E3E02860DA00B1F
S1230380000000000000000000000000000000000000000000000000000000000000000059
S10703A00000000055
S12303C020004100420043004400450046004700480049004A004B004C004D004E004F00C1
S12303E050005100520053005400550056005700580059005A002E002E002E000D000A00B1
S1230400300031003200330034003500360037003800390020002E002000200020002000FD
S11904202000200020002000200020002000200020002000200062
S12305000000C00E10024106800E0B033E06800E0D033D06800E3E02200E010E3D02200F76
S1230520950A4104840A800E800B800E010E800B0000C80DA20AC20D19003E06800E3E0289
S12305403709990A980B0000C80DB30AC20D3D06800E3D02320936093709800E3D021E00FB
S123056036093709A40AA30B00003F06800E3F02200FBD0A800E3F02B40B800E3F0214021F
S1230580200FD30A400FD30A800E3F021502200FD30A800E3F021602400FD60A800E3F0248
S11705A01702480FD60A800E3F02B40B1A04800E3F02B40BB9
S12306004D0041004700540041005000450020005200450043004F005200440000005500A3
S12306204E004900540020003A00200000004C004100420045004C003A0020000000460051
S12306404F0052004D00410054003A00200000005000410059004C004F00410044003A0075
S12306602000000046004F0052004D0041005400200055004E004B004E004F0057004E003D
S12306800000420041004400200048004500410044004500520000004100530043004900A6
S11306A0490020005300490058004200490054000A
S11707000000C80D880AC20D08071D04810A800B1A04800BBC
S9030100FB
