S1230100C00EC002BA0DB90DA00A8A08C004800A020F9E0A0000B90D8A0BBC0DC106C00EC2
S1230120C102080E080E080E080E080E080EC400A508C00EC102C400A5088A0A800E020FCE
S1230140800EC602C306B708020F0000C206800EC702C806800EC202C802C806800EC8037C
S1230160C206810DB10A800EC202860DA50B0000800EC303200FBD0AB70BA508C304B80A93
S123018001000000000000003F0020000901C9000000200041004200430044004500460073
S12301A04700480049004A004B004C004D004E004F00500051005200530054005500560053
S12301C05700580059005A002E002E002E000D000A003000310032003300340035003600B3
S12301E037003800390021002C002D002E0027003A003B003F002E002E002E002E002E00EA
S12302002E002E002E002E002E002E002E002E002E004E004F002000540041005000450055
S10902200D000A000000BD
S9030100FB
