S1090010000000000000E6
S11B0020FA0FFD0FFF0F3F000D000A000000000000000000000040010A
S11B005000000000000000000000000000000000000000000000000094
S1230100C00E1202C10DC00E280212020806C00E10021606C008080716048A0AC00E280298
S123012012020806C00E2E0212020906C00E11021606C00E0803C5081604990AC00E2E021A
S113014012020A06C00E10021606F508F409020F80
S12301800000C80DC10AC20DC00B00001706800E1702D808E7081806800E18020907800E2A
S12301A017021300E7081806800E18020907C50B0000400E080E400E080E400E080E400E00
S12301C0080E400E080E400E080E1300D80B00001906800E1B031A06800E19021A021A0677
S11D01E0800E1A03E70B880180010000800E0A03200FFB0AF50BF309F60A8F
S123028020004100420043004400450046004700480049004A004B004C004D004E004F0002
S12302A050005100520053005400550056005700580059005A002E002E002E000D000A00F2
S12302C0300031003200330034003500360037003800390020002E0020002000200020003F
S11902E020002000200020002000200020002000200020002000A4
S12303000000800E14028808800E15028808800B00001806810D8A0A800E1802860D880BD7
S9030100FB
