S1090010000000000000E6
S1230020FA0FFD0FFF0F3F000D000A00000001000000000000000000400128002E00500655
S11B00580000000000000000000000000000000000000000000000008C
S1230100C00E1F026A0DC00E1702C10DC00E1D0212020806C00E10021606C00808071604C4
S12301208D0AC00E1D0212020806C00E1E0212020906C00E11021606C00E0803C508160447
S11D01409C0AC00E1E0212020A06C00E10021606F308AC09020F0801000122
S12301800000C80DC10AC20DC00B00001806800E1802D808E7081906800E19020907800E26
S12301A018021300E7081906800E19020907C50B0000400E080E400E080E400E080E400EFD
S12301C0080E400E080E400E080E1300D80B00001A06800E1C021B06800E1A021B021B0672
S11901E0800E1B03E70B0000800E0A03200FF90AF30BAB09F40AEA
S12302000000800E14028808800E15028808800B00001906810D8A0A800E1902860D880BD6
S123028020004100420043004400450046004700480049004A004B004C004D004E004F0002
S12302A050005100520053005400550056005700580059005A002E002E002E000D000A00F2
S12302C0300031003200330034003500360037003800390020002E0020002000200020003F
S11902E020002000200020002000200020002000200020002000A4
S9030100FB
